{
  "transactions": [
    {
      "hash": "0xaa93048749bfbdbeb0a98cb01b2f922bfc6a9e745ee3c97877fdcedc2760a795",
      "transactionType": "CREATE",
      "contractName": "MockUSDC",
      "contractAddress": "0x42d77bb3aec7c1f4df2ffc9cce3e5c3f5ec39d65",
      "function": null,
      "arguments": null,
      "transaction": {
        "from": "0xb155a22500c7893af0c7fa0ab6e28d565c4fe1aa",
        "to": null,
        "gas": "0x6dc4a",
        "value": "0x0",
        "input": "0x6080604052348015600e575f80fd5b506105498061001c5f395ff3fe608060405234801561000f575f80fd5b506004361061009b575f3560e01c806340c10f191161006357806340c10f191461014357806370a082311461015857806395d89b4114610177578063a9059cbb1461019b578063dd62ed3e146101ae575f80fd5b806306fdde031461009f578063095ea7b3146100dd57806318160ddd1461010057806323b872dd14610116578063313ce56714610129575b5f80fd5b6100c7604051806040016040528060098152602001684d6f636b205553444360b81b81525081565b6040516100d491906103f1565b60405180910390f35b6100f06100eb366004610441565b6101d8565b60405190151581526020016100d4565b6101085f5481565b6040519081526020016100d4565b6100f0610124366004610469565b610244565b610131600681565b60405160ff90911681526020016100d4565b610156610151366004610441565b6102ce565b005b6101086101663660046104a3565b60016020525f908152604090205481565b6100c7604051806040016040528060058152602001646d5553444360d81b81525081565b6100f06101a9366004610441565b610336565b6101086101bc3660046104c3565b600260209081525f928352604080842090915290825290205481565b335f8181526002602090815260408083206001600160a01b038716808552925280832085905551919290917f8c5be1e5ebec7d5bd14f71427d1e84f3dd0314c0f7b2291e5b200ac8c7c3b925906102329086815260200190565b60405180910390a35060015b92915050565b6001600160a01b0383165f9081526002602090815260408083203384529091528120545f1981146102b85782811015610290576040516313be252b60e01b815260040160405180910390fd5b6001600160a01b0385165f908152600260209081526040808320338452909152902083820390555b6102c385858561034b565b506001949350505050565b805f808282546102de91906104f4565b90915550506001600160a01b0382165f818152600160209081526040808320805486019055518481527fddf252ad1be2c89b69c2b068fc378daa952ba7f163c4a11628f55a4df523b3ef910160405180910390a35050565b5f61034233848461034b565b50600192915050565b6001600160a01b0383165f908152600160205260409020548181101561038457604051631e9acf1760e31b815260040160405180910390fd5b6001600160a01b038085165f8181526001602052604080822086860390559286168082529083902080548601905591517fddf252ad1be2c89b69c2b068fc378daa952ba7f163c4a11628f55a4df523b3ef906103e39086815260200190565b60405180910390a350505050565b602081525f82518060208401528060208501604085015e5f604082850101526040601f19601f83011684010191505092915050565b80356001600160a01b038116811461043c575f80fd5b919050565b5f8060408385031215610452575f80fd5b61045b83610426565b946020939093013593505050565b5f805f6060848603121561047b575f80fd5b61048484610426565b925061049260208501610426565b929592945050506040919091013590565b5f602082840312156104b3575f80fd5b6104bc82610426565b9392505050565b5f80604083850312156104d4575f80fd5b6104dd83610426565b91506104eb60208401610426565b90509250929050565b8082018082111561023e57634e487b7160e01b5f52601160045260245ffdfea2646970667358221220ec90cd327bed9d237acd73d1ecffae6924797c385b2d7f266a55202da98656ff64736f6c634300081a0033",
        "nonce": "0x1",
        "chainId": "0x85"
      },
      "additionalContracts": [],
      "isFixedGasLimit": false
    },
    {
      "hash": "0x4611dc939da679f5fc9a3644240bb84075439e20bc73eb69092821571d5882b9",
      "transactionType": "CALL",
      "contractName": "MockUSDC",
      "contractAddress": "0x42d77bb3aec7c1f4df2ffc9cce3e5c3f5ec39d65",
      "function": "mint(address,uint256)",
      "arguments": [
        "0xB155A22500C7893AF0c7FA0AB6e28d565C4fE1aA",
        "1000000000000"
      ],
      "transaction": {
        "from": "0xb155a22500c7893af0c7fa0ab6e28d565c4fe1aa",
        "to": "0x42d77bb3aec7c1f4df2ffc9cce3e5c3f5ec39d65",
        "gas": "0x18539",
        "value": "0x0",
        "input": "0x40c10f19000000000000000000000000b155a22500c7893af0c7fa0ab6e28d565c4fe1aa000000000000000000000000000000000000000000000000000000e8d4a51000",
        "nonce": "0x2",
        "chainId": "0x85"
      },
      "additionalContracts": [],
      "isFixedGasLimit": false
    }
  ],
  "receipts": [
    {
      "type": "0x2",
      "status": "0x1",
      "cumulativeGasUsed": "0x5f258",
      "logs": [],
      "logsBloom": "0x00000000000000000000000000000000000000000000000000000000000000000000000000000000000000000000000000000000000000000000000000000000000000000000000000000000000000000000000000000000000000000000000000000000000000000000000000000000000000000000000000000000000000000000000000000000000000000000000000000000000000000000000000000000000000000000000000000000000000000000000000000000000000000000000000000000000000000000000000000000000000000000000000000000000000000000000000000000000000000000000000000000000000000000000000000000",
      "transactionHash": "0xaa93048749bfbdbeb0a98cb01b2f922bfc6a9e745ee3c97877fdcedc2760a795",
      "transactionIndex": "0x1",
      "blockHash": "0xa5bd84f2aebf6d39bdb90930714b74acd56ce5229546dc9123d73d032f4df46b",
      "blockNumber": "0x1cb44b7",
      "gasUsed": "0x546fe",
      "effectiveGasPrice": "0xfe",
      "from": "0xb155a22500c7893af0c7fa0ab6e28d565c4fe1aa",
      "to": null,
      "contractAddress": "0x42d77bb3aec7c1f4df2ffc9cce3e5c3f5ec39d65"
    },
    {
      "type": "0x2",
      "status": "0x1",
      "cumulativeGasUsed": "0x6fc7b",
      "logs": [
        {
          "address": "0x42d77bb3aec7c1f4df2ffc9cce3e5c3f5ec39d65",
          "topics": [
            "0xddf252ad1be2c89b69c2b068fc378daa952ba7f163c4a11628f55a4df523b3ef",
            "0x0000000000000000000000000000000000000000000000000000000000000000",
            "0x000000000000000000000000b155a22500c7893af0c7fa0ab6e28d565c4fe1aa"
          ],
          "data": "0x000000000000000000000000000000000000000000000000000000e8d4a51000",
          "blockHash": "0xa5bd84f2aebf6d39bdb90930714b74acd56ce5229546dc9123d73d032f4df46b",
          "blockNumber": "0x1cb44b7",
          "blockTimestamp": "0x6a4c474e",
          "transactionHash": "0x4611dc939da679f5fc9a3644240bb84075439e20bc73eb69092821571d5882b9",
          "transactionIndex": "0x2",
          "logIndex": "0x0",
          "removed": false
        }
      ],
      "logsBloom": "0x0000000000000000000000000000000000000000000000000000000000000000000000000000000000000000000000000000000000000000000000000000000000000000000000000000000a000000000000000000000000000000000000000000000000020000000000000000000800000000000000000000000010000000000000000000000000000000000000000000000000000000100000000000200000000000000000000000000200000000000000000000000000000000000000000000000002000000000000000000000000000000000000000000004000000020000000000000000000000000000000000000000000000000000000000000000000",
      "transactionHash": "0x4611dc939da679f5fc9a3644240bb84075439e20bc73eb69092821571d5882b9",
      "transactionIndex": "0x2",
      "blockHash": "0xa5bd84f2aebf6d39bdb90930714b74acd56ce5229546dc9123d73d032f4df46b",
      "blockNumber": "0x1cb44b7",
      "gasUsed": "0x10a23",
      "effectiveGasPrice": "0xfe",
      "from": "0xb155a22500c7893af0c7fa0ab6e28d565c4fe1aa",
      "to": "0x42d77bb3aec7c1f4df2ffc9cce3e5c3f5ec39d65",
      "contractAddress": null
    }
  ],
  "libraries": [],
  "pending": [],
  "returns": {
    "token": {
      "internal_type": "contract MockUSDC",
      "value": "0x42d77Bb3aeC7C1f4df2ffc9Cce3e5C3F5Ec39D65"
    }
  },
  "timestamp": 1783383924047,
  "chain": 133,
  "commit": null
}